{
  "abi": [
    {
      "inputs": [],
      "name": "UnsafeDecrement",
      "type": "error"
    },
    {
      "inputs": [
        {
          "internalType": "uint256",
          "name": "num_",
          "type": "uint256"
        }
      ],
      "name": "decrement",
      "outputs": [],
      "stateMutability": "nonpayable",
      "type": "function"
    },
    {
      "inputs": [],
      "name": "getNum",
      "outputs": [
        {
          "internalType": "uint256",
          "name": "",
          "type": "uint256"
        }
      ],
      "stateMutability": "view",
      "type": "function"
    },
    {
      "inputs": [],
      "name": "increment",
      "outputs": [],
      "stateMutability": "nonpayable",
      "type": "function"
    },
    {
      "inputs": [],
      "name": "number",
      "outputs": [
        {
          "internalType": "uint256",
          "name": "",
          "type": "uint256"
        }
      ],
      "stateMutability": "view",
      "type": "function"
    },
    {
      "inputs": [
        {
          "internalType": "uint256",
          "name": "newNumber",
          "type": "uint256"
        }
      ],
      "name": "setNumber",
      "outputs": [],
      "stateMutability": "nonpayable",
      "type": "function"
    }
  ],
  "bytecode": {
    "object": "0x608060405234801561001057600080fd5b506101a3806100206000396000f3fe608060405234801561001057600080fd5b50600436106100575760003560e01c80633a9ebefd1461005c5780633fb5c1cb1461007157806367e0badb146100845780638381f58a1461009a578063d09de08a146100a3575b600080fd5b61006f61006a366004610112565b6100ab565b005b61006f61007f366004610112565b600055565b6000545b60405190815260200160405180910390f35b61008860005481565b61006f6100f9565b6000816000546100bb9190610141565b11156100dd57806000808282546100d29190610141565b909155506100f69050565b604051631179e3db60e11b815260040160405180910390fd5b50565b600160008082825461010b919061015a565b9091555050565b60006020828403121561012457600080fd5b5035919050565b634e487b7160e01b600052601160045260246000fd5b818103818111156101545761015461012b565b92915050565b808201808211156101545761015461012b56fea2646970667358221220ce224b753542745fd0f75a29bf50979dc7e447148b23be83d409228b21359a0264736f6c63430008150033",
    "linkReferences": {}
  },
  "methodIdentifiers": {
    "decrement(uint256)": "3a9ebefd",
    "getNum()": "67e0badb",
    "increment()": "d09de08a",
    "number()": "8381f58a",
    "setNumber(uint256)": "3fb5c1cb"
  },
  "id": 0
}